{
  "contractName": "Defi",
  "abi": [
    {
      "inputs": [],
      "stateMutability": "nonpayable",
      "type": "constructor"
    },
    {
      "inputs": [
        {
          "internalType": "address",
          "name": "",
          "type": "address"
        },
        {
          "internalType": "string",
          "name": "",
          "type": "string"
        },
        {
          "internalType": "uint256",
          "name": "",
          "type": "uint256"
        }
      ],
      "name": "approvers",
      "outputs": [
        {
          "internalType": "address",
          "name": "",
          "type": "address"
        }
      ],
      "stateMutability": "view",
      "type": "function",
      "constant": true
    },
    {
      "inputs": [
        {
          "internalType": "address",
          "name": "receiver",
          "type": "address"
        },
        {
          "internalType": "string",
          "name": "tokenName",
          "type": "string"
        }
      ],
      "name": "setAllowance",
      "outputs": [],
      "stateMutability": "nonpayable",
      "type": "function"
    },
    {
      "inputs": [
        {
          "internalType": "string",
          "name": "tokenName",
          "type": "string"
        }
      ],
      "name": "getAllowanceSenders",
      "outputs": [
        {
          "internalType": "address[]",
          "name": "",
          "type": "address[]"
        }
      ],
      "stateMutability": "view",
      "type": "function",
      "constant": true
    }
  ],
  "bytecode": "0x608060405234801561001057600080fd5b506107ad806100206000396000f3fe608060405234801561001057600080fd5b50600436106100415760003560e01c80639726fae41461004657806398f7ac7114610062578063ea20e12014610092575b600080fd5b610060600480360381019061005b9190610492565b6100c2565b005b61007c60048036038101906100779190610524565b610181565b60405161008991906105a2565b60405180910390f35b6100ac60048036038101906100a791906105bd565b6101f2565b6040516100b991906106c4565b60405180910390f35b6000808373ffffffffffffffffffffffffffffffffffffffff1673ffffffffffffffffffffffffffffffffffffffff1681526020019081526020016000208160405161010e9190610760565b9081526020016040518091039020339080600181540180825580915050600190039060005260206000200160009091909190916101000a81548173ffffffffffffffffffffffffffffffffffffffff021916908373ffffffffffffffffffffffffffffffffffffffff1602179055505050565b60006020528260005260406000208280516020810182018051848252602083016020850120818352809550505050505081815481106101bf57600080fd5b90600052602060002001600092509250509054906101000a900473ffffffffffffffffffffffffffffffffffffffff1681565b60606000803373ffffffffffffffffffffffffffffffffffffffff1673ffffffffffffffffffffffffffffffffffffffff168152602001908152602001600020826040516102409190610760565b90815260200160405180910390208054806020026020016040519081016040528092919081815260200182805480156102ce57602002820191906000526020600020905b8160009054906101000a900473ffffffffffffffffffffffffffffffffffffffff1673ffffffffffffffffffffffffffffffffffffffff1681526020019060010190808311610284575b50505050509050919050565b6000604051905090565b600080fd5b600080fd5b600073ffffffffffffffffffffffffffffffffffffffff82169050919050565b6000610319826102ee565b9050919050565b6103298161030e565b811461033457600080fd5b50565b60008135905061034681610320565b92915050565b600080fd5b600080fd5b6000601f19601f8301169050919050565b7f4e487b7100000000000000000000000000000000000000000000000000000000600052604160045260246000fd5b61039f82610356565b810181811067ffffffffffffffff821117156103be576103bd610367565b5b80604052505050565b60006103d16102da565b90506103dd8282610396565b919050565b600067ffffffffffffffff8211156103fd576103fc610367565b5b61040682610356565b9050602081019050919050565b82818337600083830152505050565b6000610435610430846103e2565b6103c7565b90508281526020810184848401111561045157610450610351565b5b61045c848285610413565b509392505050565b600082601f8301126104795761047861034c565b5b8135610489848260208601610422565b91505092915050565b600080604083850312156104a9576104a86102e4565b5b60006104b785828601610337565b925050602083013567ffffffffffffffff8111156104d8576104d76102e9565b5b6104e485828601610464565b9150509250929050565b6000819050919050565b610501816104ee565b811461050c57600080fd5b50565b60008135905061051e816104f8565b92915050565b60008060006060848603121561053d5761053c6102e4565b5b600061054b86828701610337565b935050602084013567ffffffffffffffff81111561056c5761056b6102e9565b5b61057886828701610464565b92505060406105898682870161050f565b9150509250925092565b61059c8161030e565b82525050565b60006020820190506105b76000830184610593565b92915050565b6000602082840312156105d3576105d26102e4565b5b600082013567ffffffffffffffff8111156105f1576105f06102e9565b5b6105fd84828501610464565b91505092915050565b600081519050919050565b600082825260208201905092915050565b6000819050602082019050919050565b61063b8161030e565b82525050565b600061064d8383610632565b60208301905092915050565b6000602082019050919050565b600061067182610606565b61067b8185610611565b935061068683610622565b8060005b838110156106b757815161069e8882610641565b97506106a983610659565b92505060018101905061068a565b5085935050505092915050565b600060208201905081810360008301526106de8184610666565b905092915050565b600081519050919050565b600081905092915050565b60005b8381101561071a5780820151818401526020810190506106ff565b83811115610729576000848401525b50505050565b600061073a826106e6565b61074481856106f1565b93506107548185602086016106fc565b80840191505092915050565b600061076c828461072f565b91508190509291505056fea26469706673582212200154766dce79556c53b322f6254da63c9857bc3e57ea8d25cfe0259097e2e49b64736f6c63430008090033",
  "immutableReferences": {},
  "source": "pragma solidity ^0.8.9;\n\ncontract Defi {\n\tmapping(address => mapping(string =>  address[])) public approvers;\n\n\tconstructor(){}\n\n\tfunction setAllowance(address receiver, string memory tokenName) public {\n\t\tapprovers[receiver][tokenName].push(msg.sender);\n\t}\n\n\tfunction getAllowanceSenders(string memory tokenName) public view returns (address[] memory){\n\t\treturn approvers[msg.sender][tokenName];\n\t}\n}\n",
  "sourcePath": "/Users/ayaz/Desktop/projects/solidity-test/contracts/Defi.sol",
  "compiler": {
    "name": "solc",
    "version": "0.8.9+commit.e5eed63a.Emscripten.clang"
  },
  "schemaVersion": "3.4.3",
  "updatedAt": "2021-10-14T18:30:40.182Z",
  "networkType": "ethereum",
  "devdoc": {
    "kind": "dev",
    "methods": {},
    "version": 1
  },
  "userdoc": {
    "kind": "user",
    "methods": {},
    "version": 1
  }
}