{
  "contractName": "Defi",
  "abi": [
    {
      "inputs": [],
      "stateMutability": "nonpayable",
      "type": "constructor"
    },
    {
      "inputs": [
        {
          "internalType": "address",
          "name": "",
          "type": "address"
        },
        {
          "internalType": "uint256",
          "name": "",
          "type": "uint256"
        }
      ],
      "name": "approvers",
      "outputs": [
        {
          "internalType": "address",
          "name": "",
          "type": "address"
        }
      ],
      "stateMutability": "view",
      "type": "function",
      "constant": true
    },
    {
      "inputs": [
        {
          "internalType": "address",
          "name": "receiver",
          "type": "address"
        }
      ],
      "name": "setAllowance",
      "outputs": [],
      "stateMutability": "nonpayable",
      "type": "function"
    },
    {
      "inputs": [],
      "name": "getAllowanceSenders",
      "outputs": [
        {
          "internalType": "address[]",
          "name": "",
          "type": "address[]"
        }
      ],
      "stateMutability": "view",
      "type": "function",
      "constant": true
    }
  ],
  "bytecode": "0x608060405234801561001057600080fd5b506104b0806100206000396000f3fe608060405234801561001057600080fd5b50600436106100415760003560e01c806337ea3db7146100465780639c7ceca314610064578063ee20e78414610094575b600080fd5b61004e6100b0565b60405161005b919061035a565b60405180910390f35b61007e600480360381019061007991906103e3565b61017a565b60405161008b9190610432565b60405180910390f35b6100ae60048036038101906100a9919061044d565b6101c8565b005b60606000803373ffffffffffffffffffffffffffffffffffffffff1673ffffffffffffffffffffffffffffffffffffffff16815260200190815260200160002080548060200260200160405190810160405280929190818152602001828054801561017057602002820191906000526020600020905b8160009054906101000a900473ffffffffffffffffffffffffffffffffffffffff1673ffffffffffffffffffffffffffffffffffffffff1681526020019060010190808311610126575b5050505050905090565b6000602052816000526040600020818154811061019657600080fd5b906000526020600020016000915091509054906101000a900473ffffffffffffffffffffffffffffffffffffffff1681565b6000808273ffffffffffffffffffffffffffffffffffffffff1673ffffffffffffffffffffffffffffffffffffffff168152602001908152602001600020339080600181540180825580915050600190039060005260206000200160009091909190916101000a81548173ffffffffffffffffffffffffffffffffffffffff021916908373ffffffffffffffffffffffffffffffffffffffff16021790555050565b600081519050919050565b600082825260208201905092915050565b6000819050602082019050919050565b600073ffffffffffffffffffffffffffffffffffffffff82169050919050565b60006102c182610296565b9050919050565b6102d1816102b6565b82525050565b60006102e383836102c8565b60208301905092915050565b6000602082019050919050565b60006103078261026a565b6103118185610275565b935061031c83610286565b8060005b8381101561034d57815161033488826102d7565b975061033f836102ef565b925050600181019050610320565b5085935050505092915050565b6000602082019050818103600083015261037481846102fc565b905092915050565b600080fd5b61038a816102b6565b811461039557600080fd5b50565b6000813590506103a781610381565b92915050565b6000819050919050565b6103c0816103ad565b81146103cb57600080fd5b50565b6000813590506103dd816103b7565b92915050565b600080604083850312156103fa576103f961037c565b5b600061040885828601610398565b9250506020610419858286016103ce565b9150509250929050565b61042c816102b6565b82525050565b60006020820190506104476000830184610423565b92915050565b6000602082840312156104635761046261037c565b5b600061047184828501610398565b9150509291505056fea2646970667358221220b57ad93679c4db7da9d21cb7a5f88216b81dff17ae2d3b9423069e1b1301806d64736f6c63430008090033",
  "immutableReferences": {},
  "source": "pragma solidity ^0.8.9;\n\ncontract Defi {\n\tmapping(address => address[]) public approvers;\n\n\tconstructor(){}\n\n\tfunction setAllowance(address receiver) public {\n\t\tapprovers[receiver].push(msg.sender);\n\t}\n\n\tfunction getAllowanceSenders() public view returns (address[] memory){\n\t\treturn approvers[msg.sender];\n\t}\n}\n\n\n\n",
  "sourcePath": "/Users/ayaz/Desktop/projects/solidity-test/contracts/Defi.sol",
  "compiler": {
    "name": "solc",
    "version": "0.8.9+commit.e5eed63a.Emscripten.clang"
  },
  "schemaVersion": "3.4.3",
  "updatedAt": "2021-10-13T23:12:33.452Z",
  "networkType": "ethereum",
  "devdoc": {
    "kind": "dev",
    "methods": {},
    "version": 1
  },
  "userdoc": {
    "kind": "user",
    "methods": {},
    "version": 1
  }
}